:020000040800F2
:10000000680600208901000891010008930100089A
:100010009501000897010008990100080000000000
:100020000000000000000000000000009B0100082C
:100030009D010008000000009F010008A1010008C8
:10004000A3010008A3010008A3010008A301000800
:10005000A3010008A3010008A3010008A3010008F0
:10006000A3010008A3010008A3010008A3010008E0
:10007000A3010008A3010008A3010008A3010008D0
:10008000A3010008A3010008A3010008A3010008C0
:10009000A3010008A3010008A3010008A3010008B0
:1000A000A3010008A3010008A3010008A3010008A0
:1000B000A3010008A3010008A3010008A301000890
:1000C000A3010008A3010008A3010008A301000880
:1000D000A3010008A3010008A3010008A301000870
:1000E000A3010008A3010008A301000800F002F822
:1000F00000F03AF80AA090E8000C82448344AAF188
:100100000107DA4501D100F02FF8AFF2090EBAE885
:100110000F0013F0010F18BFFB1A43F0010318473B
:100120001409000034090000103A24BF78C878C1CF
:10013000FAD8520724BF30C830C144BF04680C60ED
:10014000704700000023002400250026103A28BF35
:1001500078C1FBD8520728BF30C148BF0B60704739
:100160001FB51FBD10B510BD00F031F81146FFF7E7
:10017000F7FF00F02FFC00F04FF803B4FFF7F2FF99
:1001800003BC00F057F800000948804709480047C1
:10019000FEE7FEE7FEE7FEE7FEE7FEE7FEE7FEE737
:1001A000FEE7FEE704480549054A064B7047000094
:1001B0006D070008ED0000086800002068060020B8
:1001C000680200206802002070477047704775463B
:1001D00000F02CF8AE4605006946534620F00700B3
:1001E000854618B020B5FFF7DDFFBDE820404FF091
:1001F00000064FF000074FF000084FF0000BAC4630
:10020000ACE8C009ACE8C009ACE8C009ACE8C0097A
:1002100021F007018D46704710B50446AFF300800A
:100220002046BDE81040FFF7A8BF00000048704717
:100230000800002001491820ABBEFEE7260002009E
:100240007047000080B500F08DFB80BD80B582B0A6
:100250000190FFE7019840B1FFE74FF47A7000F09A
:1002600007F8019801380190F4E702B080BD000062
:1002700080B582B0019040F20040C4F2000000213D
:1002800000F0C4FAFFE740F20040C4F2000000F0C2
:10029000B7FA0199884201D2FFE7F4E702B080BDC6
:1002A00088B007900691002005900490039002907A
:1002B000019000900698C07800F00F000590069815
:1002C000C078C006002806D5FFE706988178059813
:1002D00008430590FFE70698007800284BD0FFE719
:1002E00007980068019000200390FFE70398072813
:1002F0003DD8FFE7039901208840029006980088C6
:100300000299084004900498029988422AD1FFE794
:1003100003988000029002990F2088400090009975
:100320000198884301900598029900FA01F101981B
:10033000084301900698C078282806D1FFE7039962
:1003400001208840079948610BE00698C07848284A
:1003500006D1FFE703990120884007990861FFE76C
:10036000FFE7FFE7FFE7039801300390BEE701983E
:1003700007990860FFE706980088B0F5807F50DB9A
:10038000FFE707984068019000200390FFE703987B
:10039000072842D8FFE7039800F1080101208840B0
:1003A00002900698008802990840049004980299E7
:1003B00088422DD1FFE703988000029002990F2018
:1003C000884000900099019888430190059802990F
:1003D00000FA01F10198084301900698C078282896
:1003E00008D1FFE7039800F1080101208840079930
:1003F0004861FFE70698C078482808D1FFE70398CE
:1004000000F108010120884007990861FFE7FFE734
:10041000FFE7039801300390B9E701980799486016
:10042000FFE708B07047000082B00190ADF80210FD
:100430008DF801209DF8010028B1FFE7BDF802000A
:100440000199086104E0BDF8020001994861FFE7E5
:1004500002B0704782B001908DF803109DF8030040
:1004600048B1FFE7019A41F21C01C4F20201086899
:100470001043086008E0019A41F21C01C4F2020135
:10048000086890430860FFE702B0704782B00190AF
:100490008DF803109DF8030048B1FFE7019A41F27F
:1004A0001801C4F2020108681043086008E0019ACC
:1004B00041F21801C4F20201086890430860FFE7A6
:1004C00002B0704780B586B0042002900121FFF78A
:1004D000DDFFB020ADF81400032001908DF8160068
:1004E00010208DF8170040F60000C4F201000390C0
:1004F00005A90491FFF7D4FE019B029A0398049981
:100500004FF0400CADF814C08DF816308DF8172060
:10051000FFF7C6FE06B080BD80B582B040F6000091
:10052000C4F20100009010210122FFF77DFF009826
:10053000202100220192FFF777FF0098019A4021C5
:10054000FFF772FF0098019A8021FFF76DFF02B05C
:1005500080BD000080B584B08DF80F0000220292AB
:100560008DF80E2040F60000C4F201001021FFF7C4
:100570005BFF0120FFF76AFE02988DF80D00FFE790
:100580009DF80D00072832DCFFE79DF80F0000F012
:1005900080008DF80E009DF80E0080280DD1FFE739
:1005A00040F60000C4F20100802101220192FFF711
:1005B0003BFF0198FFF75CFE0BE040F60000C4F241
:1005C000010080210022FFF72FFF0120FFF750FEDE
:1005D000FFE79DF80F0040008DF80F0000F016F8BF
:1005E000FFE79DF80D0001308DF80D00C8E740F6DB
:1005F0000000C4F20100102101220092FFF714FF55
:100600000098FFF723FE04B080BD000080B584B0E1
:1006100040F60000C4F20100029020210191012265
:10062000FFF702FF05200390FFF710FE01990298E3
:100630000022FFF7F9FE0398FFF708FE04B080BD23
:1006400080B500F001F880BD84B0002003900290D6
:1006500041F20001C4F20201086840F480300860F1
:10066000FFE741F20000C4F20200006800F400302D
:100670000290039801300390FFE702990020019057
:1006800039B9FFE70398B0F5A06018BF01200190C9
:10069000FFE70198C0070028E3D1FFE741F200001F
:1006A000C4F2020000688003002803D5FFE70120A0
:1006B000029002E000200290FFE70298012851D149
:1006C000FFE742F20001C4F20201086840F01000A6
:1006D0000860086820F007000860086840F0020021
:1006E000086041F20401C4F2020100910868086048
:1006F00008680860086840F480600860086820F4B2
:100700007C100860086840F4E810086041F20001BD
:10071000C4F20201086840F080700860FFE741F20F
:100720000000C4F2020000688001002801D4FFE745
:10073000F5E741F20401C4F20201086820F0030069
:100740000860086840F002000860FFE741F204001A
:10075000C4F20200006800F00C00082801D0FFE796
:10076000F4E700E0FFE704B07047000080B541F215
:100770000002C4F20202106840F00100106041F271
:100780000401C4F2020108680023CFF6FF031840F9
:10079000086010684FF6FF73CFF6F66318401060DC
:1007A000106820F480201060086820F4FE000860C3
:1007B00041F20801C4F202014FF41F000860FFF784
:1007C0003FFF4EF60851CEF200014FF00060086086
:1007D00080BD000082B001908DF803109DF80300E9
:1007E00030B1FFE70199088840F00100088005E07A
:1007F0000199088820F001000880FFE702B07047E7
:1008000081B000900098808C01B0704782B0019058
:10081000ADF80210BDF802000199888402B070475B
:1008200083B0029001910020ADF802000298008888
:10083000ADF80200029842F60041C4F2010188427C
:1008400025D0FFE7029843F20041C4F2010188423B
:100850001DD0FFE70298B0F1804F18D0FFE7029853
:1008600040F20041C4F20001884210D0FFE7029834
:1008700040F60001C4F20001884208D0FFE7029868
:1008800040F60041C4F2000188420ED1FFE7BDF8F6
:10089000020020F07000ADF8020001984188BDF818
:1008A00002000843ADF80200FFE7029841F20001A0
:1008B000C4F20001884216D0FFE7029841F20041DD
:1008C000C4F2000188420ED0FFE7BDF8020020F418
:1008D0004070ADF802000198C188BDF802000843DD
:1008E000ADF80200FFE7BDF8020002990880019808
:1008F0008088029988850198008802990885029865
:1009000042F60041C4F20101884220D0FFE702987C
:1009100043F20041C4F20101884218D0FFE7029877
:1009200044F20001C4F20101884210D0FFE70298AE
:1009300044F20041C4F20101884208D0FFE7029866
:1009400044F60001C4F20101884205D1FFE7019895
:10095000007A02990886FFE702990120888203B095
:100960007047000080B588B000200190ADF81200FB
:10097000022001210391FFF76DFD019840F2000173
:10098000C2F2000109684DF68362C4F21B32A1FB7A
:1009900002124FF0FF3101EB9241ADF812104FF609
:1009A000FF71ADF81810BDF81210ADF81410ADF8C5
:1009B0001A00ADF8160040F20040C4F200000290A8
:1009C00005A9FFF72DFF02980399FFF703FF08B071
:1009D00080BD000080B584B0002000900390FFF738
:1009E00071FDFFF799FDFFF72DFC009846F67001A9
:1009F000C7F2614102918DF80700FFE700208DF8F2
:100A00000700FFE79DF80700032811DCFFE79DF8CA
:100A1000071002A8405CFFF79DFD4FF47A70FFF7C6
:100A200015FCFFE79DF8070001308DF80700E9E7A6
:100A3000E4E70000580A0008000000200800000059
:100A400028010008600A0008080000206006000075
:100A5000440100080000000000A24A040000000059
:04000005080000ED02
:00000001FF
